:100000000C942A000C9434000C9434000C943400AA
:100010000C9434000C9434000C9434000C94340090
:100020000C9434000C9434000C9434000C94340080
:100030000C9434000C9434000C9434000C94340070
:100040000C9434000C9434000C9434000C94340060
:100050000C94340011241FBECFE5D8E0DEBFCDBF25
:100060000E9436000C9442000C94000083E084BB94
:1000700017BAB39B04C085B3836085BBFACFA89839
:08008000A998F7CFF894FFCF17
:00000001FF
