:100000000C942A000C9434000C9434000C943400AA
:100010000C9434000C9434000C9434000C94340090
:100020000C9434000C9434000C9434000C94340080
:100030000C9434000C9434000C9434000C94340070
:100040000C9434000C9434000C9434000C94340060
:100050000C94340011241FBECFE5D8E0DEBFCDBF25
:100060000E9436000C948E000C9400008FE384BB39
:1000700017BA85B385BB85B3816285BB2FEB87E259
:1000800099E0215080409040E1F700C0000085B326
:1000900015BA85B3896085BB2FEB87E299E02150C3
:1000A00080409040E1F700C0000085B315BA85B3E9
:1000B000886185BB2FEB87E299E02150804090401A
:1000C000E1F700C0000085B315BA85B3826185BB36
:1000D0002FEB87E299E0215080409040E1F700C08B
:1000E000000085B315BA85B3866085BB2FEB87E228
:1000F00099E0215080409040E1F700C0000085B3B6
:1001000015BA85B3846285BB2FEB87E299E0215055
:1001100080409040E1F700C00000ABCFF894FFCFE3
:00000001FF
